:020000040000FA
:1000000080390120B5B9000085B20300A1B9000014
:10001000A1B90000A1B90000A1B9000000000000D2
:1000200000000000000000000000000025BB0000F0
:10003000A1B9000000000000CDBA0000A1B9000085
:10004000E1BC00008BBD0300E1BC0000E1BC00008E
:10005000E1BC0000E1BC0000E1BC0000E1BC00002C
:10006000A1BD0300E1BC0000E1BC000075BD0300C0
:10007000E1BC0000E1BC0000E1BC0000E1BC00000C
:10008000E1BC0000E1BC0000E1BC0000E1BC0000FC
:10009000E1BC0000E1BC0000E1BC0000E1BC0000EC
:1000A000E1BC0000E1BC0000E1BC0000E1BC0000DC
:1000B000E1BC0000E1BC0000E1BC0000E1BC0000CC
:1000C000E1BC0000E1BC0000E1BC0000E1BC0000BC
:1000D000E1BC0000E1BC0000E1BC0000E1BC0000AC
:1000E000E1BC0000E1BC0000E1BC0000E1BC00009C
:1000F000E1BC0000E1BC0000E1BC0000E1BC00008C
:1001000001F0FF01102A2BDB10F0070F08D010F8C8
:10011000013B013A8B422DD010F0070F42B3F6D1CC
:10012000F0B441EA012141EA014122F007047FF0E5
:1001300000070023F0E80256083C85EA010586EA3C
:10014000010685FA47F5A3FA87F586FA47F6A5FA78
:1001500087F68EB9EED1F0BC01F0FF0102F0070284
:1001600032B110F8013B013A83EA010313B1F8D12F
:100170000020704701387047002D06BF3546033810
:10018000073815F0010F07D1013015F4807F02BF49
:10019000013015F4C03F0130F0BC0138704700BF9A
:1001A00080EA101404F0F01480EA0410604081EA40
:1001B000111404F0F01481EA0411614082EA12146F
:1001C00004F0F01482EA0412624083EA131404F08B
:1001D000F01483EA0413634080EA102404F47F449B
:1001E00080EA0420604081EA112404F47F4481EA1B
:1001F0000421614082EA122404F47F4482EA04224A
:10020000624083EA132404F47F4483EA04236340B6
:1002100081EA500404F0553480EA4400614083EAE6
:10022000520404F0553482EA4402634082EA9004A6
:1002300004F0333480EA8400624083EA910404F0DD
:10024000333481EA84016340704700BF82EA90043E
:1002500004F0333480EA8400624083EA910404F0BD
:10026000333481EA8401634081EA500404F0553458
:1002700080EA4400614083EA520404F0553482EA83
:100280004402634080EA102404F47F4480EA04209E
:10029000604081EA112404F47F4481EA0421614032
:1002A00082EA122404F47F4482EA0422624083EA50
:1002B000132404F47F4483EA0423634080EA101487
:1002C00004F0F01480EA0410604081EA111404F094
:1002D000F01481EA0411614082EA121404F0F0146F
:1002E00082EA0412624083EA131404F0F01483EAF1
:1002F00004136340704700BF2DE9F14F94464FEA65
:10030000930B8A68CB6808684968FFF749FF0BF1CF
:10031000060E33E083EA134480EA134582EA13476A
:1003200046BA96EA3444604000F00F1684EA063478
:1003300020F00F1684EA161054BA94EA01067240AF
:1003400002F00F1486EA043622F00F1486EA141223
:100350004CBA6540694001F00F1485EA043521F07C
:100360000F1485EA14115CBA67407B4003F00F1448
:1003700087EA043723F00F1487EA1413BCE8F0006F
:100380006040694072407B4000F0E03400F010357E
:1003900000F00F3040EA540040EAC50080EA9004C3
:1003A00004F0332480EA8400604001F0E03401F07E
:1003B000103501F00F3141EA540141EAC50181EAEB
:1003C000910404F0332481EA8401614002F0E034B6
:1003D00002F0103502F00F3242EA540242EAC5023E
:1003E00082EA920404F0332482EA8402624003F039
:1003F000E03403F0103503F00F3343EA540343EACB
:10040000C50383EA930404F0332483EA840363403E
:1004100081EA324787EA134581EA354690EA0604C5
:1004200084EA034B82EA1B4280EA044484EA0544DE
:1004300083EA144A85EA14448BEA044B84EA37447D
:1004400081EA0B4181EA164104EA0A00454082EA4A
:1004500004082BEA080041408AEA0B0602EA06007B
:1004600084EA34438AEA3A4603EA0607784045407C
:10047000414088EA38478BEA3B4007EA000985EAB1
:10048000090583EA0709464006EA0906714085EA3C
:10049000010005EA3546464006EA314181EA30412D
:1004A00081EA364606EA304686EA3546344008EAAE
:1004B000010886EA01052A4086EA364003405A4090
:1004C00081EA31431F407C4080EA030709EA0709BB
:1004D00088EA0908544088EA020806EA0A0601EA9E
:1004E0000B018AEA0B0215408AEA3A421040454065
:1004F0008BEA3B4003405E404240174079404D400C
:100500004E40E443F64386EA18435D4085EA0540E1
:1005100083EA134386EA034183EA384284EA1143BB
:1005200083EA04435FEA3343BEF1010E3FF6F2AEC5
:100530001ED4BCE8F0006040694072407B4020BCA3
:10054000FFF784FE28606960AA60EB60BDE8F08F69
:100550002DE9E0414FF2F00280EA1031114080EACB
:100560000130484041088208C3084FF0000E4FE7B1
:1005700000F0113001F0113102F0113203F01133AB
:1005800040EA410040EA820040EAC3004FF2F00234
:1005900080EA1031114080EA01304840BDE8E08136
:1005A0002DE9F04F02F11C050646074600EB8508D1
:1005B00051F8040B043A46F8040BF9D14FF0010C42
:1005C000FFF7C6FF5FEA302080EA0C001ECF4140F3
:1005D0004A4053405C401EC62000464517D04FEAB3
:1005E0004C0C1CF4807F18BFACF1E50C2C2DE7D02F
:1005F0003C2D06D1FFF7ACFF06CF41404A4006C66E
:10060000100006CF41404A4006C61000D8E736E940
:100610000F00FFF7C5FD043D86E80F00F7D1BDE8E8
:10062000F08F00BF2DE9F14F03F11C0402EB840CA5
:100630004FEA930B8A68CB6808684968FFF7B0FDFA
:100640003CE9F0006040694072407B400BF1060ECF
:100650004EE083EA134480EA134582EA134746BA20
:1006600096EA3444604000F00F1684EA063420F025
:100670000F1684EA161054BA94EA0106724002F08A
:100680000F1486EA043622F00F1486EA14124CBACC
:100690006540694001F00F1485EA043521F00F141C
:1006A00085EA14115CBA67407B4003F00F1487EAB7
:1006B000043723F00F1487EA141344BA44404DBAA8
:1006C0004D4056BA56405FBA5F4087EA174886EAFF
:1006D000174B84EA17464FEA38488BEA1B4485EAF1
:1006E0001B4788EA1B4580EA3440694072407B40E2
:1006F00000F0703400F0803500F00F3040EA440024
:1007000040EAD50080EA900404F0332480EA8400B3
:10071000604001F0703401F0803501F00F3141EAA2
:10072000440141EAD50181EA910404F0332481EACD
:100730008401614002F0703402F0803502F00F3223
:1007400042EA440242EAD50282EA920404F03324E7
:1007500082EA8402624003F0703403F0803503F0D3
:100760000F3343EA440343EAD50383EA930404F0D6
:10077000332483EA84036340C943DB4381EA0004F2
:1007800083EA044686EA020183EA014382EA3345AA
:1007900083EA14435C4084EA00077FEA040A8AEA99
:1007A000024A8AEA010B87EA11488AEA374A80EA54
:1007B000060181EA1A418AEA030A04EA0A0045406E
:1007C00088EA040707EA0B0041408AEA0B0608EAB8
:1007D000060084EA34428AEA3A4602EA06035840AE
:1007E0004540414087EA37438BEA3B4003EA000932
:1007F00085EA090582EA0309464006EA09067140CE
:1008000085EA010005EA3546464006EA314181EABB
:10081000304181EA364606EA304686EA35463440BB
:100820000F4086EA010508EA050886EA36400240DC
:1008300088EA020881EA314213405C4080EA020300
:1008400009EA030987EA0907674088EA040806EA13
:100850000A0601EA0B018AEA0B0425408AEA3A44B7
:10086000204045408BEA3B4B02EA0B02564084EAAB
:100870000B04234059406E40694087EA364080EAC5
:10088000384080EA060380EA104481EA134585EA8D
:10089000344585EA17427D4082EA354180EA0540C9
:1008A0003CE9F0006040694072407B40BEF1010EBF
:1008B0003FF6CFAE20BCFFF7C9FC28606960AA6094
:1008C000EB60BDE8F08F00BFFFF76ABE70B491E83F
:1008D0007800B2E802105B1854EB0C04B2E8021086
:1008E0004D4156EB0C0680E878008041013070BC29
:1008F000704700BF70B491E87800B2E802105B1A4C
:1009000074EB0C04B2E802108D4176EB0C0680E823
:1009100078008041404270BC704700BF2DE9F0076D
:1009200091E80017C0CAA8FB063440F8043BA9FBB5
:100930000615E8FB6741EAFB665140F8044BA9FB4A
:100940000743ECFB661344CAE8FB6254EAFB6714F6
:10095000ECFB673440F8045BA9FB0275EAFB6235E7
:10096000ECFB6245E8FB6617E9FB6637EAFB664786
:10097000ECFB6657BAC0BDE8F00770472DE9F007F9
:1009800091E8F807B2E802105B1854EB0C04B2E8E7
:1009900002104D4156EB0C06B2E802104F4158EBE5
:1009A0000C08B2E8021059EB01095AEB0C0A80E876
:1009B000F80780410130BDE8F00770472DE9F007E6
:1009C00091E8F807B2E802105B1A74EB0C04B2E885
:1009D00002108D4176EB0C06B2E802108F4178EBE5
:1009E0000C08B2E8021079EB01097AEB0C0A80E8F6
:1009F000F80780414042BDE8F00770472DE9F00755
:100A0000524290E87800B1E880071740DB1918EAF5
:100A1000020854EB080419EA020955EB09051AEA21
:100A2000020A56EB0A0678C090E87800B1E8800721
:100A300017407B4118EA020854EB080419EA02093E
:100A400055EB09051AEA020A56EB0A0678C08041FE
:100A50000130BDE8F00770472DE9F007524290E8F9
:100A60007800B1E880071740DB1B18EA020874EB36
:100A7000080419EA020975EB09051AEA020A76EB7D
:100A80000A0678C090E87800B1E880071740BB41BB
:100A900018EA020874EB080419EA020975EB090563
:100AA0001AEA020A76EB0A0678C080414042BDE8A5
:100AB000F00770472DE9F00152424FF0040890E82A
:100AC000300091E8C000A31B1340E41AF618EB1B9A
:100AD0001340ED1AFF1830C0C0C1B8F10108EED1C3
:100AE000BDE8F001704700BF00B592E8DC072DE9D2
:100AF000DC07B1E8805702B4A7FB02510A95A8FBB6
:100B0000020BE7FB6310E9FB62B00B91A8FB0351FA
:100B1000EAFB6201E7FB64B5E7FB6605E8FB6615E7
:100B2000CDF830B0A9FB03B6EAFB6316ECFB6356C5
:100B3000E8FB640BE9FB641BEAFB645BECFB646BA6
:100B40000D90ACFB0230059CEEFB6250E9FB64604B
:100B5000EAFB64B0E7FB6431E8FB6451069CE8FB08
:100B60006461E9FB64B1EAFB64010E93A7FB043204
:100B7000079CE7FB6462E8FB64B2E9FB6402EAFB02
:100B80006412049CE9FB6453EAFB6463089CE7FB82
:100B900064B3E8FB6403E9FB6413EAFB64230F9589
:100BA0005DF8049B99E80006DDF80080A9FB085475
:100BB000EAFB68B4DDF81080ECFB6804EEFB681417
:100BC000E9FB6824EAFB6834DDF80480EEFB686525
:100BD000E9FB68B5EAFB6805DDF81480ECFB6815F5
:100BE000EEFB6825E9FB6835EAFB68450F96DDF802
:100BF0000880AEFB0876E9FB6806EAFB6816DDF8BC
:100C00001880ECFB6826EEFB6836E9FB6846EAFBD9
:100C10006856DDF80C80ECFB68B7EEFB6807E9FB73
:100C20006817EAFB6827DDF81C80ECFB6837EEFBF1
:100C30006847E9FB6857EAFB686708B000BD00BF7A
:100C40002DE9F14F87B0FFF74FFFDDF81C8008F169
:100C5000200888E8FF00FFBC87E87F08BDE8F08F28
:100C600000B591E89857A3FB03520195A3FB04013B
:100C7000E3FB6420E3FB67100292A3FB0752E3FB54
:100C80006802E4FB6415E3FB6805E3FB6925039157
:100C9000A4FB07B6E3FB6926E3FB6A56E4FB670B9C
:100CA000E4FB682BE3FB6A5BE3FB6C6B0490A4FB47
:100CB0000810E4FB6950E3FB6C60E3FB6EB0E7FBFC
:100CC0006721E4FB6951E4FB6A61E3FB6EB1E4FB7D
:100CD0006E010592A7FB0832E4FB6A62E4FB6CB28A
:100CE000E4FB6E02E7FB6E12E7FB6853E7FB696308
:100CF000E4FB6CB3E7FB6C03E7FB6E13E8FB6E23CE
:100D00000695A7FB0954E7FB6AB4E7FB6C04E8FB14
:100D10006C14E8FB6E24E9FB6E34E8FB6865E7FBC6
:100D20006AB5E8FB6A05E8FB6C15E9FB6C25E9FB95
:100D30006E35EAFB6E450796A8FB0976E8FB6A0666
:100D4000E9FB6A16E9FB6C26EAFB6C36EAFB6E46A9
:100D5000ECFB6E56E8FB69B7E9FB6907E9FB6A172C
:100D6000EAFB6A27EAFB6C37ECFB6C47ECFB6E573F
:100D7000EEFB6E6700BD00BF2DE9F14F87B0FFF7B6
:100D80006FFFDDF81C8008F1200888E8FF00FFBC39
:100D900087E87F08BDE8F08F30B44FF0000310F80B
:100DA000014B11F8015B013A84EA050443EA0403AC
:100DB000F5D1A3F101034FEAD37030BC704700BFF7
:100DC0004FF0000310F8012B013943EA0203F9D177
:100DD000A3F101034FEAD370704700BF30B411F89C
:100DE000014B12F8015B6C4000F8014B013BF6D15E
:100DF00030BC70472DE9F14FF8C892E8005E19EB5E
:100E000003095AEB040A5BEB050B5CEB060C4EEB9B
:100E1000070E91E8E001A9FB0502AAFB0543E9FBE7
:100E20006624EAFB6634A9FB0765E9FB6845B1E87F
:100E30000003EBFB6836ECFB6846EEFB6856ABFB49
:100E40000987ECFB6957EEFB696791E80202EAFB50
:100E50006148EBFB6158ECFB6168EEFB61784FF099
:100E60000001EAFB0951EBFB6961ECFB6971EEFBE8
:100E700069814FF4A03C4FEA154949EA06495FF001
:100E8000000AE9FB0C0A4FEA164646EA0746E6FB6B
:100E90006C2A4FEA174747EA0847E7FB6C3A4FEAE4
:100EA000184848EA0148E8FB6C4AADB25544AF081F
:100EB00005F0030507EB8707C01952F1000153F154
:100EC000000254F1000345F1000420BC1FC5BDE839
:100ED000F08F00BF30B490E83C10511D53F1000179
:100EE00054F1000155F100014CF100014FEA91016C
:100EF000494201F00501521853F1000354F1000476
:100F000055F100054CF1000C0CF0030C80E83C108E
:100F100030BC70472DE9F04F90E8F00F00F1400031
:100F20004FF0040E59E0F0B4826BC36B04680525E2
:100F3000242687593C444FEA724787EAF24787EAFA
:100F400092273C4442684FEAF21787EAB24787EAA1
:100F5000D2073C4440F8044B032D08BF6FF01B063A
:100F600087593A444FEA734787EAF34787EA93275A
:100F70003A4443684FEAF31787EAB34787EAD3074F
:100F80003A4440F8042B87593B444FEA744787EAB8
:100F9000F44787EA94273B4444684FEAF41787EA0A
:100FA000B44787EAD4073B4440F8043B013DC0D135
:100FB000A0F13C00076A3C444FEA724787EAF247D7
:100FC00087EA92273C4402684FEAF21787EAB24761
:100FD00087EAD2073C44C463F0BC4FF0020288EABF
:100FE000781C8CEAF84C0BEBBC1C8AEA090303EA78
:100FF000080383EA0A039C4450F8043B9C4451F8DC
:10100000043B9C44674444EA050B0BEA060B04EAE4
:1010100005034BEA030BE34484EAF42383EA3453E5
:101020000BEBB30B87EA771C8CEAF74C0AEBBC1C82
:1010300089EA080303EA070383EA09039C4450F89A
:10104000043B9C4451F8043B9C4466444BEA040A2C
:101050000AEA050A0BEA04034AEA030AE2448BEAB5
:10106000FB2383EA3B530AEBB30A86EA761C8CEA3D
:10107000F64C09EBBC1C88EA070303EA060383EA83
:1010800008039C4450F8043B9C4451F8043B9C44A6
:1010900065444AEA0B0909EA04090AEA0B0349EA2A
:1010A0000309E1448AEAFA2383EA3A5309EBB309D4
:1010B00085EA751C8CEAF54C08EBBC1C87EA060334
:1010C00003EA050383EA07039C4450F8043B9C446D
:1010D00051F8043B9C44644449EA0A0808EA0B08B6
:1010E00009EA0A0348EA0308E04489EAF92383EAA3
:1010F000395308EBB30884EA741C8CEAF44C07EB10
:10110000BC1C86EA050303EA040383EA06039C4445
:1011100050F8043B9C4451F8043B9C44E34448EAA7
:10112000090707EA0A0708EA090347EA03076744C9
:1011300088EAF82383EA385307EBB3078BEA7B1C72
:101140008CEAFB4C06EBBC1C85EA040303EA0B03A8
:1011500083EA05039C4450F8043B9C4451F8043B4B
:101160009C44E24447EA080606EA090607EA08033F
:1011700046EA0306664487EAF72383EA375306EB19
:10118000B3068AEA7A1C8CEAFA4C05EBBC1C84EAAA
:101190000B0303EA0A0383EA04039C4450F8043B6C
:1011A0009C4451F8043B9C44E14446EA070505EAA7
:1011B000080506EA070345EA0305654486EAF623BF
:1011C00083EA365305EBB30589EA791C8CEAF94CBE
:1011D00004EBBC1C8BEA0A0303EA090383EA0B0352
:1011E0009C4450F8043B9C4451F8043B9C44E0442C
:1011F00045EA060404EA070405EA060344EA030490
:10120000644485EAF52383EA355304EBB304013AD9
:101210007FF4E5AEA0F14000BEF1010E7FF483AE95
:10122000A0F1400C9CE80F00001949199219DB1934
:10123000ACE80F009CE80F004044494452445B4432
:10124000ACE80F00BDE8F08F2DE9F04FB0E8FE07E5
:1012500083B02DE9010790E8005F4FF00A00069087
:101260000198DB199CEA030C18EB3C4897EA080745
:1012700013EB375393EA3C4C18EB3C6898EA37572A
:1012800024189EEA040E19EB3E4990EA090014EB7B
:10129000305494EA3E4E19EB3E6999EA3050CDE95C
:1012A0000489DDE9028949199AEA010A18EB3A48EA
:1012B00095EA080511EB355191EA3A4A18EB3A687C
:1012C00098EA355592199BEA020B19EB3B4996EACD
:1012D000090612EB365292EA3B4B19EB3B6999EA4D
:1012E000365613EB706393EA3B6B18EB3B4898EA76
:1012F000706013EB305393EA3B4B5FEA3B6B18EBA8
:101300000B0898EA30505FEA706014EB756494EA59
:101310003C6C19EB3C4999EA756514EB355494EA39
:101320003C4C5FEA3C6C19EB0C0999EA35555FEAD5
:101330007565CDE90289DDE9048911EB766191EAF1
:101340003E6E18EB3E4898EA766611EB365191EA0C
:101350003E4E5FEA3E6E18EB0E0898EA36565FEA9C
:10136000766612EB776292EA3A6A19EB3A4999EAA1
:10137000776712EB375292EA3A4A5FEA3A6A19EB18
:101380000A0999EA37575FEA7767019006980138AA
:101390007FF465AF01BC80E8005FBDE8000700E9AD
:1013A000FE0703B0BDE8F08F2DE9F00791E8F807DC
:1013B000B2E802105B1854EB0C04B2E802104D4185
:1013C00056EB0C06B2E802104F4158EB0C08B2E89D
:1013D000021059EB01095AEB0C0A8941B3F1FF33B2
:1013E00074F1FF3475F1FF3576F1000677F10007EF
:1013F00078F1000879F101097AF1FF3A51F1000121
:101400005B184C414D4156F1000657F1000758F169
:10141000000859EBD1795AEB010A80E8F807BDE8DA
:10142000F00770472DE9F00791E8F807B2E80210DD
:101430005B1A74EB0C04B2E802108D4176EB0C06DB
:10144000B2E802108F4178EB0C08B2E8021079EB99
:1014500001097AEB0C0A89415B184C414D4156F168
:10146000000657F1000758F1000859EBD1795AEB03
:10147000010A80E8F807BDE8F007704718EB040898
:1014800059EB05095AEB060A5BEB070B5FF0000C02
:101490004CF1000C18EB050859EB06095AEB070A4A
:1014A0005BEB070B50EB0C005FF0000C51EB0C01F9
:1014B00052EB0C0263414CF1000CB8EB070879F1D8
:1014C00000097AF1000A7BEB040BA841B141A2416B
:1014D000B3416CF1000CBBEB050BB041B941AA4123
:1014E000BB416CF1000C4CF001068CF0020718EBCC
:1014F000060859EB6C095AEB6C0A7BEB6C0B70EB32
:101500006C0471EB6C0572EB670653EB6C076CEBCC
:101510006C0C18EB0C0059EB0C015AEB0C025BF154
:10152000000354F1000455F1000556EBDC7657EB4F
:101530000C0770472DE9F14F87B0FFF7D5FADDF8BA
:101540001080DDF81490DDF818A0FFF797FFBDE8D4
:10155000000FFFF793FF03B05DF8048B88E8FF00EE
:10156000BDE8F08F2DE9F14F87B0FFF779FBDDF88B
:101570001080DDF81490DDF818A0FFF77FFFBDE8BC
:10158000000FFFF77BFF03B05DF8048B88E8FF00D6
:10159000BDE8F08F014B1B685B6818470000002016
:1015A000014B1B689B68184700000020014B1B681B
:1015B0001B69184700000020014B1B685B69184736
:1015C00000000020014B1B689B69184700000020A9
:1015D000014B1B68DB69184700000020014B1B68AA
:1015E0001B6A184700000020014B1B689B6A1847C4
:1015F00000000020014B1B68DB6A18470000002038
:10160000014B1B681B6B184700000020014B1B6837
:10161000DB6B18470000002030B4044C9DF80850E4
:1016200024680295E468A44630BC604700000020AE
:10163000014B1878704700BF180C0020042810B523
:1016400011D883B104280CBF10242824A1420AD247
:10165000064C54F8200018B141568A42A8BF0A46E9
:101660001A70002010BD6FF01500FBE7F80600208F
:1016700030B50346114890F91C209A4219DD90F9C3
:1016800024209A4217DA9A1A846AA05C0C4A1556EA
:101690009D420DD00E32002918BF01309442C0B2D5
:1016A00006D129B1013BDBB2012B01D80130C0B218
:1016B00030BD0D20FCE70020FAE700BFF80600204F
:1016C00000D9040008B5054B93F91C30984203DAA1
:1016D000FFF7CEFF024B1B56184608BDF806002048
:1016E00000D9040010B51C4C94F82C3073B90123B8
:1016F00084F82C3003F0E2FA48B1184BA362D823E7
:10170000236284F824300823A361237710BD03F0FB
:10171000EBFA0028F1D103F0F1FA0028EDD103F043
:10172000AFFA38B10E4BA362D823236284F8243079
:101730000423E9E703F0AEFA0028F3D103F0B4FA8A
:101740000028EFD103F0C4FA0028EBD140F2BF111A
:10175000742003F035F900BFF80600203BD90400DF
:101760000ED9040010F0FF0008B508D14FF08043F7
:1017700001225A60C3F80001034B187008BD842190
:10178000B52003F01DF900BF25070020014B012201
:101790001A7070472507002008B558B94FF08043EC
:1017A000D3F8003123B9054B187800F0010008BDCB
:1017B0000120FAE7D021B52003F002F92507002027
:1017C000F8B50F4E0127375404460D4603F002FFCB
:1017D00060B934B94FF08043B7707560C3F80473D3
:1017E000F8BD4FF488716D2003F0EAF8002DF7D0B2
:1017F0001CB92046A8477460F2E740F22B11F2E7CB
:1018000028070020044B191800228A7003EB80017E
:101810001A544A60704700BF2807002010B5034CD7
:10182000A08100F0EBFDE08110BD00BF2807002083
:10183000014BD889704700BF2807002010B5EFF38F
:10184000108472B6064B03449A7C0132D2B29A7469
:101850009B7C012B01D103F0B1FE04B962B610BD2F
:101860002807002038B503F0F0FE03F0B3FE094C62
:101870004FF0804540B103F0D5FE01232B610423D6
:1018800023750023637538BD032323750123C5F831
:101890000433F6E72807002010B5EFF3108472B682
:1018A000094B03449A7C22B940F249216D2003F090
:1018B00087F89A7C013AD2B29A749B7C0BB9FFF7F5
:1018C00051FF04B962B610BD28070020024B187DF5
:1018D000003818BF012070472807002073B51B4D42
:1018E000EB7D63B9686A00F0030003F08BFE30B152
:1018F000EFF3108372B62A7D1AB103B962B602B053
:1019000070BD01222A7503B962B64FF080430822E8
:10191000C3F808234FF42073ADF80630BDF8064035
:10192000A4B2631E9BB2ADF80630002CF6D14FF086
:1019300080460748C6F80C4104F004F885F82940B1
:10194000FFF790FF0823C6F80433D8E728070020E4
:10195000500700202DE9F347484CA37D002B00F0F1
:101960008A8003238DF8043000224FF080438DF8E5
:101970000520D3F80051F5B9D3F80481B8F1000F70
:1019800009D04FF080430022C3F804210222C3F89B
:101990000823FFF7A3FF94F8296039484FF08047E8
:1019A000F6B2D7F80C8103F0D1FF30B340F23531F5
:1019B0006D2003F005F88DF804200121D3F804818F
:1019C000C3F80813271DA61C15460DF1040A9146FD
:1019D00015F80A00032808D0337833B13B6886F83D
:1019E000009013B19847C7F80090012D07F1040744
:1019F00006F10106C2D00125EAE745B1237D032B9C
:101A000005D10423237503F00DFE01233B61B8F1DA
:101A1000000F16D04FF080430022C3F80C21237D25
:101A2000042B02D040F25B31C2E703F071F9C8B178
:101A30004FF080430022C3F8342C0223237503F0B7
:101A400007FE4EB1002384F82930237D022B01D1FB
:101A5000FFF708FF03F0FCFD094802B0BDE8F047BE
:101A600003F083BF03F034F90028E1D103F046F915
:101A70000028DDD1E1E702B0BDE8F08728070020AB
:101A80005007002010B5054C606A00F0030003F019
:101A9000B9FD0028F8D0002010BD00BF28070020A5
:101AA000F8B5054650B10278042A07D8437842B900
:101AB000013B1F2B02D88378212B07D96FF015002B
:101AC00097E0002BFAD18378002BF7D1854B0127C3
:101AD000C3F88070BFF34F8FBFF36F8F4FF0804616
:101AE000C3F88071804C4FF0FF33C6F808330023F1
:101AF000C6F80031C6F80431C6F80C31A374E3749B
:101B0000AB88238203F069FD08B12770A774D6F86B
:101B10000C24D6F80C34D20303D5DF0701D5FFF728
:101B200035FE4FF4AF60FFF779FE2B78A978E375A7
:101B30000022626221766275042B2CD8DFE803F064
:101B40000503192729000123636203F04DFD0028D6
:101B500050D003F050FD636A03F00303984249D16B
:101B6000AB79EBB9FFF78EFF00281EDA4FF4A361C3
:101B700013E003F06AFD4FF08043D3F80C14D3F860
:101B80000C24CE03F9D5D007F7D50223DCE7574B59
:101B9000DAE7574BD8E740F20A516D2002F010FF08
:101BA0004FF080430222C3F80423237E6BB12B78CD
:101BB0005BB903F00FFD054602F0B8FF6FF000437C
:101BC000002D00F08C80C4E907034FF08043D3F868
:101BD0000C24D3F80C34D20303D5DB0701D5FFF76F
:101BE000D5FD404A012300202075A375C2F880313D
:101BF0001360F8BD4FF080430122DA600022C3F881
:101C00000421626AC3F8182503F03AF810B34FF0C4
:101C100080534FF08042D3F84432C3F34233C2F8CA
:101C20003C3503F02DF810B34FF080430122C3F888
:101C30004C254FF0804301229A600222C3F804230E
:101C4000AA79002AB1D1D3F8042391071CD440F219
:101C5000BD41A2E703F01EF80028D8D103F024F814
:101C60000028D4D103F034F80028D0D1D9E703F00C
:101C700011F80028D8D103F017F80028D4D103F0C8
:101C800027F80028D0D1D4E71A4A1669116941F023
:101C900010011161D3F8043106F010060BB903F0FE
:101CA00071FE4FF08047D7F8043133B1FFF7EAFEF9
:101CB000002805DA40F2D7416FE703F061FEF2E752
:101CC00026B90C4A136923F0100313614FF08043C7
:101CD0000222C3F808230022C3F8042165E7C4E9FF
:101CE000073072E700E100E0280700200100020051
:101CF0000100030000ED00E010B50D4C04F12800D8
:101D000003F024FE48B9237D022B01D1FFF7AAFD81
:101D1000BDE81040074803F028BE074A012384F8B5
:101D20002930BDE81040C2F8003103F08EBC00BF7E
:101D3000280700205007002000E100E00C4A38B5D9
:101D40000D46117919B18A216F2002F039FE58B978
:101D5000547944B901235371FFF770FD2046294699
:101D6000FFF72EFD204638BD6FF01500FBE700BFE2
:101D70005407002038B50C4D2B7904461BB1A12126
:101D80006F2002F01DFE48B96B7953B1FFF73AFDA1
:101D900020466C71FFF780FD204638BD6FF01500BE
:101DA000FBE71846F9E700BF54070020014B9B688A
:101DB000184700BF54070020014BDB68184700BFDD
:101DC00054070020014B1B69184700BF540700202F
:101DD000034B1A790AB9FFF72BBD188E704700BF65
:101DE00054070020024B1B790BB9FFF777BD7047F2
:101DF00054070020014B9B69184700BF540700207F
:101E000010B5144C2379A3B1636A9847002806DB08
:101E100094F82E3023B1012384F83230002010BD15
:101E2000FFF7E8FF0028F6DA4FF4D1716F2002F0D7
:101E3000C7FD094BA361094BE361094B2362094BC1
:101E4000A360094BE360094B2361FFF729FE0028DB
:101E5000E1D0E4E754070020851A0000F91C0000D7
:101E6000CD1800004B560000515600005756000098
:101E7000064B10B51C7924B14FF4FB716F2002F0B2
:101E80009FFDFFF7CBFC204610BD00BF540700208C
:101E9000034610B3007888B91A79012A1ED85A79F6
:101EA000012A1BD89A680E49643A8A4216D8D86823
:101EB0000C4B98422CBF00200120704701280CD108
:101EC0001A79012A09D85A79012A06D8DA68044908
:101ED000643A8A4201D89868EAE70020704700BF58
:101EE0003C8601000040420F10B5054C236813B139
:101EF000984700232360BDE8104001F00BBD00BFF0
:101F00008807002038B5044620B94FF4D6716A20FE
:101F100002F056FD90F82850072900F2F180DFE822
:101F200001F0044B4B7B858FA89690F82630033B3D
:101F3000012B02D940F2B711E9E7052390F82410EC
:101F400080F82630002380F8293089BB744B0122A9
:101F5000DA60C3F84015C3F84011C3F84415C3F85C
:101F60004411C3F84815C3F84811C3F84C15C3F819
:101F70004C116C4B4FF48072C3F8802103F088FB46
:101F80002378012B0FD101F0F5FEC4E90601236A85
:101F90000021284698470146204603F090FB02287E
:101FA00040F0B18038BDD4E90423C4E90623EEE74C
:101FB000BDE83840FFF798BF90F82630DA1E012AB6
:101FC00002D94FF4EC71A2E790F824202AB12146FF
:101FD0002846BDE8384003F041BB042B0CBF022368
:101FE0000123012980F82630036A0AD105212846F9
:101FF00098470028D6D00378002BD3D040F2ED11BB
:1020000085E70621284698470028CBD00378002B87
:10201000C8D04FF4F9717AE790F82630052B02D03A
:1020200040F2F91173E7036A0221B2E790F8263013
:10203000052B02D040F2FF1169E7036A0121A8E7EE
:1020400090F82630052BB3D040F205215FE790F8D9
:102050002630052B02D040F20A2158E7036A0A21F4
:10206000284698470146204603F029FB40F20D21FF
:102070004DE790F82630052B07D090F825200AB1BF
:10208000032B02D040F2112141E794F82420002ACA
:102090009DD194F8293093B1022384F8263084F836
:1020A0002920236A08212846984700283FF47AAF60
:1020B0000378002B3FF476AF40F21D2127E794F818
:1020C000252062B194F8270084F82530214601F0DC
:1020D00057FE00287FF466AF40F2222117E7022363
:1020E00084F826300721236A2846984700283FF4C1
:1020F00059AF0378002B3FF455AF40F2292106E792
:1021000040F22E2103E720B1012805D1236A0421E2
:102110003FE7236A03213CE740F23F21F7E600BF97
:102120000080004000E100E02DE9F84388460746C2
:1021300080B300F037F84FF0000905465FFA89F6E2
:10214000AE420AD2304600F033F890F8264009F14A
:102150000109002CF2D1FF2E03D16FF00B00BDE876
:10216000F883304600F024F80546848480F8264041
:1021700080F8286001460A4801F0AEFD202885F865
:1021800027000AD001232F6285F82630204688F8E0
:102190000060E4E76FF01500E1E76FF02200DEE792
:1021A000051F0000014B1879704700BF8C07002005
:1021B000054B1A79824283BF1B6800EB400003EB9A
:1021C00000100020704700BF8C07002010B510F0F1
:1021D00003040A460BD107490A71086030B102EBCB
:1021E00042021201214602F0E3FD204610BD6FF0CD
:1021F0000D00FBE78C07002043F60952C0F30803EB
:1022000002FB03F3400A03F5807302FB00F000EBCE
:102210005320704743F6095CC0F3080210B50CFB6D
:1022200002F2C0F34E24030E43EA01230CFB04F038
:10223000090E02F580724FEA411C00EB52205A0150
:10224000B2EB030E4CEAD36C6CEB01044FEA841C36
:102250004FEA8E12B2EB0E024CEA9E6C6CEB040C51
:102260004FEACC0C4CEA527CD200D31841EB0C0163
:10227000DA03C903801841EA534141F1000110BD5E
:10228000430B48F2376C0CFB03F34FEA134C00B5D9
:10229000104B43F6095E0EFB1C0000FB03F35B0DC5
:1022A0000EFB03FE03EB4C230EF5745C0CF1080CE3
:1022B000B0EB5C2F08D80EF5807EA0EB5E20C0B29C
:1022C0000B6010705DF804FB013300200B60107090
:1022D0005DF804FB6F0C01002DE9F04180460C46CF
:1022E00017461E4600F054F9D0B13D4B9C426FD8C2
:1022F0003C4A3D484FEA185141EA0431A2FB0143F0
:10230000C8F30F149B0B04EB014400FB1344A2FB26
:1023100004243648A40B44EA034400FB148819E063
:10232000334B9C4258D82F4A2F484FEA587141EA04
:10233000C401A2FB0143C8F34F349B0B04EB0144DF
:1023400000FB1344A2FB04242A48A40B44EA0344E0
:1023500000FB148848F237634FEA583503FB05F554
:102360002B0C43F60952244D02FB138101FB05F5AA
:102370006D0D05FB02F205EB432502F5745308339E
:10238000B1EB532F21D802F58072A1EB5222D2B2C9
:10239000069B1A7000F0FCF858B1E3035D194FEA90
:1023A000544444F10004C6E90054C7F80080BDE875
:1023B000F08123065D194FEA142444F10004C6E9B4
:1023C0000054C7F80080BDE8F08101350022DFE746
:1023D0009A219B2002F0F4FA9F219B2002F0F0FA50
:1023E0003F420F0083DE1B43000024F440420F00F5
:1023F000FF7F841E0080841E6F0C0100420B48F298
:10240000376303FB02F2120C43F6095C074B0CFB2B
:10241000120101FB0333013B5B0D0CFB03FC50027B
:10242000B1EB5C2F88BF0130184470476F0C01007E
:1024300010B5094A92F80033202B03D13E21022027
:1024400002F0BEFA18214B43D018BDE81040D35813
:1024500040680321184700BF980700200D4B0E4924
:102460001B78012B14BF4FF4E0224FF4C02222F45A
:102470008022C1F8482318BF0023C1F80823074A67
:1024800099000A440021012B42F8041B00D1704737
:102490000123F8E7D80A002000B0004040B1004016
:1024A00008B5124BD3F8042522F00302C3F8042523
:1024B000D3F8082542F00302C3F80825102292FA47
:1024C000A2F2B2FA82F2092A04DD09484FF47371CC
:1024D00002F06CFAC3F810250122DA60054B4FF4C4
:1024E0008072C3F880211A6008BD00BF00800040E0
:1024F0000760050000E100E0114B4FF40062C3F8F3
:102500008020BFF34F8FBFF36F8FC3F880210D4B37
:1025100001225A609A60D3F80425002AFBD10A49A7
:10252000C3F808134FF4E021C3F84813C3F840215F
:10253000C3F84421C3F84821C3F80421704700BF01
:1025400000E100E000B00040020007000D4B4FF436
:102550008072C3F88020BFF34F8FBFF36F8FC3F833
:102560008021094B01214FF0FF325960C3F8082345
:102570000022C3F84025C3F840211961034B9A702B
:10258000704700BF00E100E000800040D80A002052
:10259000014BD878704700BFD80A0020014BD3E91F
:1025A00004017047D80A0020044B054AD878054B2F
:1025B000002814BF10461846704700BFD80A0020F4
:1025C00040420F000080841E044BDB78002B14BFB8
:1025D0004FF400404FF08070704700BFD80A0020D1
:1025E000044BDB78002B47F6FF7008BF6FF07F408D
:1025F000704700BFD80A0020044B054AD878054B25
:10260000002814BF10461846704700BFD80A0020A3
:102610003F420F00FF7F841E044BDB78002B14BF6A
:102620004FF480404FF40000704700BFD80A0020EC
:1026300070B50246EFF3108572B611491148CE7895
:1026400056B9D0F80445D0F804318BB18B69013309
:102650008B61C0F80461F4E7D0F84831D0F8044544
:1026600033B1FFF7D9FFB4EB500F34BF0123002380
:1026700089690B4405B962B6C2E90043104670BDD2
:10268000D80A002000B0004008B5094BD3F8042553
:10269000821AFFF7A5FF0240012A06D9FFF7BCFF07
:1026A00082428CBF0220002008BD0120FCE700BF51
:1026B00000B000400228F8B50446174604D94FF48C
:1026C000DD716C2002F07CF9114BDB784FF4803522
:1026D000854013B109B90020F8BD0E4B0E4EA20083
:1026E00013440022C6F808530846C6F848531A6037
:1026F000FFF7CAFF0028EED104F5A87446F82410AD
:102700000FB1C6F80453C6F844530120E4E700BFF4
:10271000D80A002040B1004000B00040044B054AF8
:10272000D878054B002814BF10461846704700BFE4
:10273000D80A002020A107000040420F014BD3F827
:102740000405704700B0004070B50F4B0F4D104AA4
:10275000104C0026C5F80061C3F8A8254FF40022EC
:10276000C3F8AC45C3F8042503F0DDF8D5F8003113
:102770002BB10123C5F800616360E360F4E7013029
:1027800041F1000170BD00BF00F0014000B0004009
:1027900000B1004000800040B1F1FF3F08BFB0F140
:1027A000FF3F2DE9F0412D4C05460E461ED12C4B26
:1027B000D3F80031ABB12B4B2B4AC3F80825FFF7F8
:1027C0004DFE00232377FFF7C1FEFFF769FEFFF7F9
:1027D000BBFF0223C4E904012370FF2363700127B8
:1027E00039E003F0A0F8C51C41F10006D4E90483E8
:1027F000B34208BFA845F2D01A4B1B4AC3F80825BC
:10280000FFF72CFEFFF7ECFE002200EA0501104660
:10281000FFF750FF0746F0B12378012B07D1FFF7F0
:10282000DFFE00EA0800FFF72FFF0128F6E700238C
:102830002377FFF78BFEFFF733FE0A4A01234FF0A1
:1028400000412370C2F8041504226270044AC4E9EE
:102850000456C2F848333846BDE8F081D80A002053
:1028600000B0004000F001400000088037B540B1E2
:10287000041FE4B2022C13D940F23E416C2002F056
:102880009FF8214B4FF48032C3F80823C3F840056A
:10289000C3F84001D3F840310093009B03B030BD32
:1028A0001A4D2B7893B16A7882420FD1184A194990
:1028B000C2F80815012B01D1FFF748FE00232B7049
:1028C0004FF0FF324FF0FF33C5E90423124A4FF4B3
:1028D0008033A340C2F80833C2F8483304F5A87324
:1028E00052F82300FFF7D0FE012818BF0B4B22B28D
:1028F0004FEA84041CBF00211951084B53F82230C1
:102900000193019BCAE700BF00800040D80A002065
:1029100000F001400000088000B0004040B10040DD
:1029200010B5224B114630B1041FE4B2022C2AD953
:1029300040F2F9310BE0D3E90402B2F1FF3F08BFE6
:10294000B0F1FF3F06D19B7823B940F2D1316C2022
:1029500002F036F811B940F2D531F8E7144A4FF4D5
:102960008033C2F804330123C2F840155364D2F80F
:10297000440500248142C2F8444515D82046FFF79B
:1029800075FF204610BD1A782AB15B78834202D1C8
:1029900040F2F531DBE7FFF723FE0122014020463C
:1029A000BDE81040FFF786BE1846EBE7D80A0020C6
:1029B0000080004038B5364CFF2300204FF0FF3236
:1029C00023774FF0FF33C4E904232070A061FFF7A1
:1029D000BDFDFFF791FD2F4A2F4BC2F800024FF4C7
:1029E00000611960A0682D4988B901230B60E37864
:1029F000002B47D0FFF710FE0023421E0620FFF7F2
:102A00008FFF60BB40F267216C2001F0D9FF244B9F
:102A1000244DC3F8A855C3F8AC05C3F85C194FF4AE
:102A20000021C3F804150521C2F8401501211160E9
:102A3000D2F840110029FBD04FF40021C3F808154B
:102A400001215160D1600021C2F84011C2F8401547
:102A5000C3F8A815C3F8AC15C3F8AC15C7E72279BD
:102A60001149D30003F1804303F5F833C3F810157F
:102A7000A1F5A071C3F8141501239340084AC2F8C8
:102A8000083538BD054B0222C3F80423F9E700BF1F
:102A9000D80A00200080004000E100E000B00040C3
:102AA00000F001404081004048B1004008B5FFF708
:102AB000D5FC054B4FF0FF32C3F808230022C3F8C2
:102AC0004025C3F8402108BD0080004008B5012220
:102AD000084B10B1C3F8442308BDC3F84823FFF7DF
:102AE00035FD054B4FF0FF3118704FF0FF30C3E953
:102AF0000401F1E700B00040D80A00202DE9F041C0
:102B0000334D344EDFF8D0800024D5F804334FF431
:102B10008031A140194221D056F82430A700EBB1F2
:102B200098F803305BB1022C09D1062001F07AFB42
:102B3000BB599BB940F273416C2001F041FF04F591
:102B4000A87355F82300FFF79FFD38B10023201D1F
:102B5000BB51C0B2C5F8081301F064FB0134032C6B
:102B6000D3D11D4A1A49D37843B3D1F84831FBB1C8
:102B7000FFF736FDD1F8484515790123A04203FA45
:102B800005F317D1D1F804058442FBD091690131D6
:102B90009161124AC2F80835FFF73EFD0219FFF7AE
:102BA0001FFD0B4B0240C3F848250022C3F8482103
:102BB000BDE8F081094AC2F80435EDE7D1F8040117
:102BC0000028F5D0C1F80431936901339361EFE730
:102BD00000B0004040B10040D80A002000F00140A1
:102BE00010B51C4C237FFF2B2DD0237883B10122FD
:102BF000022BA27021D1184B4FF40022C3F80825F4
:102C0000002323704FF0FF324FF0FF33C4E9042359
:102C1000124BD3F80423D2031BD5D3F84021C2B101
:102C20004FF480320020C3F80823C3F84001FF238B
:102C30002377BDE8104001F0F5BA022360782370D5
:102C4000FFF714FEE4E7054BD3F804330BB107207C
:102C5000EFE710BDD80A002000F0014000800040DE
:102C60002DE9F04F95B01C460492CDE90101FFF724
:102C700095FC182305460F460820B84904EB44028A
:102C800013FB0404631801EBC2026458197BD3F8E8
:102C9000049093F80DA00591083201F1010B0FCAC1
:102CA0000DF1380C8CE80F000394FFF799FC2040DD
:102CB000FFF7A2FA8046FFF731FD0090FFF774FCA2
:102CC0000646FFF799FC804508EB0B0200F2BA813B
:102CD000009B9B4500F3B181B24280F28F80002AB5
:102CE000B6BF931900920093FFF76CF8BAF1010F89
:102CF000834609D0DFF86882D8E90223B3F1FF3FA9
:102D000008BFB2F1FF3F4CD0FFF762F8B7F1FF3FC9
:102D100008BFB5F1FF3F069003D0AC4279EB070343
:102D20006FD2019B03210022E31A8B4261DBDFF8A3
:102D30003082D8E902319C4279EB010045D2B1F1F1
:102D4000FF3F08BFB3F1FF3F40F08681019B079230
:102D5000E61A029B69EB030BFFF73AF80930C31739
:102D600086427BEB030380F0E380049B079A012BF0
:102D700000F0E880002A48D1B7F1FF3F08BFB5F165
:102D8000FF3F42D0291B67EB0903042973F10000C0
:102D900080F23D81012973F100032ADA93460395FD
:102DA00044E00028B0D1FFF713F8B7F1FF3F08BFA8
:102DB000B5F1FF3F069004D0AC4279EB070380F0F9
:102DC000AD80019BC11C0122AEE7BBF1000FBDD15C
:102DD000B1F1FF3F08BFB3F1FF3FB7D00698E31A48
:102DE00069EB0101834271F10003AFD2BAF1010F27
:102DF000ACD00026304615B0BDE8F08F931B009391
:102E000072E700212B460A468EE720464946FFF727
:102E1000C3FC4FF0000B0028EBD0B9F1FF3F08BF17
:102E2000B4F1FF3F00F0138125464F46FFF7D8FB72
:102E3000039B1840FFF7E0F90646FFF76FFC01908F
:102E4000FFF7B2FB0290FFF7D7FB009B01999A1B9B
:102E500091420DD8A6EB030C614500F2B780904279
:102E6000C0F0D080604580F00181029A32449A1A05
:102E7000D3170020FFF754FD06460028B9D0BAF159
:102E8000010FD8E902236FD0BBF1000F40F087801B
:102E9000B3F1FF3F08BFB2F1FF3F00F0C780D8F8A1
:102EA00018304FF080420120C2F808051860FFF783
:102EB0000DFEB8F81030002B40F09D8000238DF8F7
:102EC000483008934FF0FF324FF0FF33CDE90A232B
:102ED000DDF814808DF845A0CDF83C908DF8448045
:102EE0000E940DF1200CBCE80F001E4F3D460FC59F
:102EF000BCE80F000FC59CE80F0085E80F002046D6
:102F00004946FFF787F9434601331B1841F1000199
:102F10003046C7E9043115B0BDE8F08F98F810309D
:102F2000002B069B14BF0021194601222B46FBE60D
:102F300020464946FFF730FCBAF1010B18BF4FF0AD
:102F4000010B68E7B7F1FF3F08BFB5F1FF3F00F0A5
:102F5000888003954FF0000B68E700BF98070020BA
:102F6000F80A0020A00A0020B3F1FF3F08BFB2F129
:102F7000FF3F1AD1BBF1000F2BD1B8F81030002B56
:102F800039D1BAF1010F99D1621E69F10003052010
:102F9000FFF7C6FC002840D088F811A08EE7B3F1F7
:102FA000FF3F08BFB2F1FF3F13D0FEF705FFD8F88F
:102FB00018204FF0804C00234FF0FF304FF0FF31CE
:102FC000C8E902011360CCF80835D3E7CCF1000260
:102FD0004EE7069BEA1A67F100030520FFF7A0FC05
:102FE00000283FF406AF98F81030002BC9D1012318
:102FF00088F81030C5E70520FFF738FC0023A8F853
:103000001030BEE71A46029B1A44921B30E7204656
:1030100049469346FFF7C0FBFDE6D8F818304FF05D
:103020008042C2F808A5C3F800A047E7FEF7BEFE3D
:1030300002F079FCC8E9020131E740F23141702029
:1030400001F0BEFC4FF48661702001F0B9FC4FF432
:10305000FB61702001F0B4FC40F2BF71702001F000
:10306000AFFC40F23B71702001F0AAFC40F6B201C7
:10307000702001F0A5FC00BF2DE9F04F8F4FBC7C04
:1030800004EB44033B4483B05D78202D4AD08C4B45
:10309000E6B26400002B00F08D808A4BDFF82892A6
:1030A000002B61D005EB461207EB420A4FEA4618A7
:1030B0009AF81C30013BDBB2052B36D8834A12F854
:1030C00003B0BBF1080F30D0EFF31083019372B659
:1030D00034443C44AFF300809AF81D206270A2781B
:1030E000019BAA4204BF2022A27013B9AFF3008053
:1030F00062B6A84405EB450509EBC50207EB480895
:10310000506859F835300122594688F81C209847F4
:10311000BC7C04EB44033B44E6B25D78202D4FEACF
:103120004404BFD103B0BDE8F08F40F205717020B8
:1031300001F046FC62B6A84405EB450509EBC50263
:1031400007EB4808506859F835300122594688F88D
:103150001C209847BC7C04EB44033B44E6B25D78FA
:10316000202D4FEA4404DDD005EB461207EB420A5E
:103170004FEA46189AF81C30013BDBB2052BD4D835
:10318000524A12F803B0BBF1080FCED0EFF3108310
:10319000019372B634443C44AFF300809AF81D208A
:1031A0006270A278019B954204BF2022A270002B7E
:1031B000C1D1BFE7434BDFF814B1DFF80CA14FF0EA
:1031C0002009002B4FD005EB461207EB42024FEAD5
:1031D0004618137F013BDBB2052BA6D81BF8031062
:1031E0000829A2D0EFF3108372B634443C44527FD6
:1031F0006270A278954208BF84F80290002B52D0EA
:10320000A84407EB480805EB45050AEBC5025AF848
:1032100035305068012288F81C209847BC7C04EBAC
:1032200044033B44E6B25D78202D4FEA4404CAD102
:1032300078E762B6A84405EB45050AEBC50207EB43
:10324000480850685AF83530012288F81C20984701
:10325000BC7C04EB44033B44E6B25D78202D4FEA8E
:1032600044043FF45FAF05EB461207EB42024FEA1E
:103270004618137F013BDBB2052B3FF656AF1BF818
:10328000031008293FF451AFEFF3108372B63444B2
:103290003C44527F6270A278954208BF84F8029045
:1032A000002BC7D1C5E70191AFF3008062B6A844F7
:1032B000019905EB450507EB4808A6E7F80A002049
:1032C0000000000000000000980700206CD90400F6
:1032D0002DE9F04F85B0DFF80C81019301EB41033C
:1032E0004FF0200C18F8034003916445924682F891
:1032F00000C073D04B01DFF8F09006469B4610E00B
:10330000727B012A02D0427D012A57D00BEB0403C5
:1033100008EB43038AF800405B7F202BA4465DD076
:103320001C4604EB440009EBC000D0E90323876886
:103330003568716813EB070E42F10002754571EBB9
:1033400002024FEA4403DBD21D46019B83F800C012
:10335000039B4FEA431B281909EBC0003768B36889
:10336000D0F808A07268C168DB1942F100029A45E2
:1033700071EB020310D3437D012B02D0737B012B31
:1033800003D0012005B0BDE8F08FFEF721FDAAEBC8
:10339000070701308742F4DA019A254409EBC50595
:1033A0001470A97DB27B0BEB0403914208EB43033D
:1033B00010D95C7F202CE4D06500CCE70293FEF7A7
:1033C00007FDED1B01308542A0DA029B9AF800C090
:1033D0001D46BAE7002005B0BDE8F08F019B1C70C8
:1033E000CFE700BFF80A0020980700202DE9F04F32
:1033F00083B00C4615461E469DF83070FEF7FEFF62
:1034000022686368451946F10006954276EB03038E
:1034100042D3DFF88C8005E05D4576EB09033BD3B2
:10342000C4E900B90DF107030DF106023946204643
:10343000FFF74EFF88BB9DF8073003EB430308EB13
:10344000C303D3E902A01A691AF1030B40F100008B
:1034500012EB0B0B627B40F10009012ADCD05B7D93
:10346000012BD9D1FEF7B4FCABEB0A030130834248
:10347000D2DA9DF8073003EB430308EBC303D3E92B
:1034800002B9FEF7A5FC013010EB0B0B49EBE0791C
:103490005D4576EB0903C3D2002003B0BDE8F08F91
:1034A000980700202DE9F04715461C4612782F7A20
:1034B00095F809C088B00023E360C4E90033A7731E
:1034C0009DF8408084F80DC00646A360E2730F4665
:1034D000E2B9FEF79FFE80468946FFF759F80028BB
:1034E00044D0D5E9040118F1270849F10009404505
:1034F00071EB09034DD2013E47F1FF37C4E9006784
:103500004FF47A73A36008B0BDE8F087FFF74CF87A
:1035100004F10C02013806A9FEF7B2FE3E4B1B78FF
:10352000202B65D03D498B69D1E90721093342F150
:10353000000A13EB01094AF1000A6B68207B18446A
:10354000023004AA04F10801C4E9009AFEF798FECB
:103550002869CDF8008032463B462146FFF746FFFA
:1035600008B9C4E9006708B0BDE8F087D5E90401EF
:103570002B4B18EB030349F10002984271EB020355
:10358000B9D218F1270849F10009404571EB090348
:10359000B1D3461E41F1FF3704F10C03009303AA97
:1035A00004AB30463946FEF797FE686800250230C6
:1035B00045F100010DF10B03801947EB010103AA4E
:1035C000009306ABFEF788FEDDE905030499079A30
:1035D0005B1AC4E900104FF0FF3162EB0002994220
:1035E00075EB02028ED240F2EC41702001F0E8F956
:1035F000637B16F1090947F1000A012B9DD0FEF704
:10360000E1FB002899D1FEF7E3FB10EB0903994693
:103610004AF1000A91E700BF980A0020A00A0020A2
:103620000040420F2DE9F04F01EB4103994C14F893
:10363000038083B0B8F1200F01910D4606464FEA92
:1036400041073ED1944B0BB1AFF3008002F06BF910
:10365000E37C202B81468A4609D0904B811CD3E91C
:1036600006024AF10003884272EB03034ED3B8F11D
:10367000200F00F08980FEF78BFF98B1884A08EB95
:10368000480302EBC302D2E9022B0192FEF7C4FF0A
:10369000019A10EB09004AF1000182427BEB010321
:1036A00080F0CD803246484651464346FFF7D8FA6F
:1036B000002800F0918084F81380022003B0BDE858
:1036C000F08F02F030F9DFF8D8A10190C4464FF036
:1036D00020096B0106E092F81DE0BEF1200FE146E3
:1036E00021D0F4460CEB4C0E0AEBCE0EDEE902BE06
:1036F000834503EB0C027EEB010E04EB42029B467A
:10370000E9D3B9F1200F05D1E0459BD0002003B0EB
:10371000BDE8F08F09EB451304EB4303CC4693F867
:103720001DE04FEA451B7B19042014F8039004F8B0
:1037300003E049460BEB010304EB43030A469445BF
:103740008E461877597FF5D17B1923445A4493F854
:1037500002C0BCF1200F5FFA8CF008BF83F8019023
:1037600007EB050318BF5844234418BF04EB40007F
:1037700004EB420283F802E04FF0200318BF80F808
:103780001D908C465377BFE7D4E90223B3F1FF3F86
:1037900008BFB2F1FF3F0ED0FEF70EFBA1694FF05C
:1037A000804200234FF0FF364FF0FF37C4E9026735
:1037B0000B60C2F80835238A002B3AD10420FFF7AA
:1037C00055F8FFF773F90020FFF780F92023012057
:1037D000E37403B0BDE8F08F7A1908EB451304EBEE
:1037E0004303A05C5B7FA3544FEA451B03460421BF
:1037F0001A465B4404EB4303904519775B7FF7D18E
:103800007B1923443D449E78202EF1B21CBF5944BD
:1038100004EB4101934404EB4B0B2C4414BF487759
:10382000587000202023A2708BF81D3003B0BDE833
:10383000F08F0520FFF71AF800232382BEE7D4E9B2
:103840000223B3F1FF3F08BFB2F1FF3F0ED0FEF7F6
:10385000B3FAA2694FF0FF314FF080434FF0FF30D1
:10386000C4E9020100211160C3F80815238A5BB97D
:103870000420FEF7FBFFFFF719F90020FFF726F9F8
:103880002023E374022019E70520FEF7EFFF002351
:103890002382EDE7F80A002000000000A00A0020C3
:1038A0009807002038B5164A164D4FF0FF304FF0FC
:1038B000FF310023C2E90201C5E90201202142F2E1
:1038C0002000A970136082F82830E9741C46288013
:1038D000AB742B8205F11C0202F814300134202C49
:1038E000FAD1094801F060F9084B094A1C701070C0
:1038F00001F01AFAA861FFF75DF801232B7538BDB6
:10390000A00A0020F80A002079300000980A002060
:10391000D00A00202DE9F04F87B002F004F8DFF85C
:103920000CA306460D46FFF7C1F84FF0FF334FF0EA
:10393000FF32CAE902239AF82830D3B9DAF81830EE
:10394000DAF82020DAF81C10B948023341F10001FE
:103950009B1802F5DF62A0FB02024FEA922241F1BE
:1039600000019B1841F100029E4275EB020380F0BA
:1039700094814FF0FF304FF0FF31FEF70DFF00282C
:1039800000F0A081AB4A13780593202B00F09581BD
:10399000A94C20231370E374A37C0022CAF80020F2
:1039A00003EB4302A75CDAB2202F4FEA43030392F2
:1039B00004930BD0DFF8848207EB470308EBC303C3
:1039C0004FEA4709DA7D012A00F0EC80DDE9033295
:1039D0009A4F02EB0309A1445D0199F80060202E83
:1039E0001BD001F0A0FF32464FF0200E07E0AB18CD
:1039F00004EB430396465B7F202B5FD01A4602EB15
:103A0000420307EBC303D3E902C384458B41EED3E2
:103A1000BEF1200F4CD19642DFD1894B0BB1AFF3F1
:103A2000008001F080FFE37C202B80468B4607D08E
:103A3000DAE90623023041F1000182428B41CCD306
:103A4000202E00F08B80FEF7A3FD98B106EB460216
:103A500007EBC202D368926802930192FEF7DCFD85
:103A6000019A029B10EB08004BF1000182428B414E
:103A700080F0EA804046594633460122FFF7F0F8CD
:103A8000002843D0E674059BEB1804EB43031A7F30
:103A9000022A00F0A680FF23A371DDE9032313446B
:103AA0001C446378202B40F08F8007B0BDE8F08F76
:103AB00005EB0E0304EB430372465B7F99F800E0CD
:103AC00089F8003070464FF004082B1804EB4303CC
:103AD00001468A42587F83F81C80F6D199F802206B
:103AE00089F80210D3B2202A1CBF5B1904EB4303F0
:103AF000294404EB410118BF83F81DE04FF0200377
:103B000008BF89F801E002464B7784E7AB1904EB64
:103B1000430399F800005B7F89F8003004210346D5
:103B20001A46EB1804EB4303964219775B7FF7D1F3
:103B300099F8021089F80220CBB220291CBF5B192A
:103B400004EB43032A4404EB420218BF58774FF0BA
:103B5000200308BF89F8010053773EE7D4E9022328
:103B6000B3F1FF3F08BFB2F1FF3F0ED0FEF724F9DB
:103B70004FF08046A26900234FF0FF304FF0FF3135
:103B8000C4E902011360C6F80835238A1BBB042070
:103B9000FEF76CFEFEF78AFF0020FEF797FF20235A
:103BA000E37470E75B7D012B66D1033645F10005B8
:103BB00009EB070308EBC303D3E90202B042AA41B1
:103BC00028BFC3E9026501E71E4B187807B0BDE8BE
:103BD000F04F01F005B80520FEF748FE00232382D0
:103BE000D5E70599154A01EB410102EBC102527D6F
:103BF000022A4FD0DDE903120A4422440621197734
:103C000091782029CBB241D02B44059A04EB430391
:103C100011465A77DDE90302024422446B1804EB93
:103C20004303917020225A7735E700BFA00A002095
:103C30009300DC92980A0020F80A002098070020E0
:103C400000000000D00A0020D4E90223B3F1FF3FB6
:103C500008BFB2F1FF3F98D0FEF7AEF8A2694FF06F
:103C6000FF314FF080434FF0FF30C4E902010021E3
:103C70001160C3F8081588E7FEF7A4F8002894D16E
:103C8000FEF7A6F8861945F1000591E7059B5370EC
:103C90001946BFE701221A77FDE60D4B0D4A1B7846
:103CA000182101FB03F3D01807214068D358984727
:103CB00040F2B721702000F083FE40F2C221702054
:103CC00000F07EFE40F2BF21702000F079FE00BFC0
:103CD000980A00209807002038B505460C46FEF7E4
:103CE00089F8002822DB14498B7C01F11C0C5FFA57
:103CF00083FE0CEB831C002302E00133202B13D046
:103D00001CF81320D8B2002AF7D10C4A03EB4E1E40
:103D100003EB430301EB4E0142F8335002EBC303C4
:103D200001220A775C6038BD184638BD4FF44671F1
:103D3000702000F045FE00BFF80A00209807002020
:103D40001F2808D80A498B7C00EB431301EB43037F
:103D50001A7F012A01D0002070478B7C00EB4313AF
:103D600001EB43034FF0000C104683F81CC0704772
:103D7000F80A0020014BD3E904017047A00A002093
:103D80002DE9F04FB54A53688DB0C3F30803029094
:103D90000491002B40F03B8108230393049B1B7884
:103DA000012B00F23082AE4E26B1002140F25D5070
:103DB000AFF300800023AB4C05934FF0010926B10F
:103DC000002140F26A50AFF30080B9F1000F04D136
:103DD000A54B0BB1AFF3008062B6A57CEDB24FF0FE
:103DE0000003A371039B002B40F09880A84626B1E6
:103DF000002140F27E50AFF3008001F094FD049A60
:103E0000009508AB07468A46FFF74CFB26B1002118
:103E100040F28650AFF30080DDF808C00CEB481B81
:103E200004EB4B0B4FEA48199BF81C30013B012B6C
:103E300072D8DDE9082302374AF1000ABA4273EB6F
:103E40000A0380F0BC8008EB4802224404239078E7
:103E50008BF81C3020284FEA4803C1B200F08B8158
:103E6000494404EB4101624681F81DC043442344A8
:103E7000914404EB49099A70202389F81D300023EE
:103E80000593012726B1002140F28B50AFF300804B
:103E9000EFF31088C14672B6744B0BB1AFF30080DC
:103EA000A379002B8BD1029A714B02EB420C03EBEE
:103EB000CC0C08AB0FCB0CF1080C8CE80F008FB1C9
:103EC000039B002B00F0C380059B23B1694B1B783B
:103ED000202B00F05481A37CDB4303F00103A37487
:103EE000FF23A371B8F1000F04D15F4B0BB1AFF307
:103EF000008062B626B1002140F2C250AFF30080CC
:103F0000002F4AD126B1002140F2CE50AFF30080FD
:103F100038460DB0BDE8F08F0027B3E7564B05F1EA
:103F2000010A0AF0010A03EB851E03EB8A1CBEE8B6
:103F30000F00ACE80F00BEE80F00ACE80F00BEE8D1
:103F40000F00ACE80F009EE80F002DB28CE80F00C8
:103F5000D0460FFA8AF726B100214FF47B70AFF3F9
:103F6000008005EB450507EB47076319625B9B780B
:103F7000E2532744BB7056B100214FF47C70AFF37D
:103F8000008026B1002140F27450AFF30080A37985
:103F9000002B7FF414AF554629E7A37C03EB4303C2
:103FA0001C446378202BADD026B1002140F2C950CB
:103FB000AFF30080314B187800F012FEA2E70DF14C
:103FC0001F030DF11E02294608A8FFF781F905908D
:103FD000002855D108EB48022244042390788BF83E
:103FE0001C3020284FEA4803C1B200F0B880494491
:103FF00004EB4101029A4A7743442344914404EB81
:1040000049099A70202389F81D3001273AE7103BAF
:1040100059B20029C0F2A78001F1604101F5614168
:1040200091F800335B090393002B7FF4B7AE114B7B
:104030001B78202B00F0EC80049B1B780393002B53
:104040003FF4B1AE40F25651702000F0B9FCFF23AE
:10405000A371B8F1000F7FF44DAF46E700ED00E02B
:1040600000000000F80A002000000000000000002E
:1040700098070020980A0020140B0020D00A002086
:104080009DF81E709DF81FC0674519D1202F00F0C4
:10409000A68009EB070304EB43035B7F8BF81D301D
:1040A0004F4404EB4707029B7B770023029A059F4E
:1040B0000593914404EB4909032389F81C30E1E698
:1040C000BCF1200F00F0A98009EB0C0304EB4303C3
:1040D000202F597F00F08B8009EB070204EB42028E
:1040E0004FEA480392F81DB0517758464FF0050A41
:1040F00009EB000204EB420201468C45864682F839
:104100001CA0507FF4D103EB08022244494492F8EA
:1041100002A0BAF1200F08BF82F801B003EB080239
:1041200022445FFA8AFC18BFCC4482F802E0029A6B
:1041300018BF04EB4C0C4A4418BF8CF81DB004EBBC
:1041400041014FF0200C04EB4202674581F81DC08D
:104150005077A5D14344029AE254059BA6E7029901
:1041600051700A4648E703F00F03043B13441B7EDB
:104170005B09039358E782F801C0624676E6294658
:104180000220FFF74FFA00287FF4A5AEA37CDDF8EC
:1041900008C003EB430020440CEB4312857804EB8A
:1041A00042020421202D1177DFB24FEA4312E9B217
:1041B0004FEA430323D0114404EB410181F81DC0B1
:1041C00061463B4423440A4404EB42029970202395
:1041D000059F5377B8F1000F7FF48CAE85E608EBAE
:1041E0004803E35C8BF81D304FEA4803B2E708EB65
:1041F00048024FEA480314F802B0A15475E761463B
:1042000080F801C0DDE740F25A51702000F0D8FB81
:1042100040F25351702000F0D3FB4FF4EC7170204A
:1042200000F0CEFBF0B587B0072813D8DFE800F028
:104230004512121212230414894CA37C03EB43038E
:10424000E75C01F070FB06460D46FEF7A1F9002879
:1042500040F0838007B0F0BD824B834A1B7803EBAC
:10426000430302EBC30052F833304068042107B027
:10427000BDE8F04018477A4C237C002B61D0D4E98C
:104280000223B3F1FF3F08BFB2F1FF3F00F0D2803D
:104290000120FEF71BFC754BD3E90623013A4FF0D2
:1042A000000163F1000305202174FEF739FB0028AB
:1042B00000F09A8001236374CCE7694CD4E90223AF
:1042C000B3F1FF3F08BFB2F1FF3F00F09580A36953
:1042D000644D4FF080420120C2F808051860FEF7D7
:1042E000F5FB2B78202B00F08E80604E96F8252071
:1042F000012A57D0FDF766FD0346002851D194F8F6
:104300009C200132D2B2312A84F89C2000F2A38092
:104310004FF47A7228786946CDE90032CDE902334C
:10432000CDE90433FFF72CFD002800F08F8096F8CC
:104330002840012386F82830FFF7ECFA86F8284059
:1043400088E7627C002A3CD0A16963744FF080400A
:104350000122C0F808250A607CE7424B1B78202B1D
:104360007FF478AFE37C202B7FF474AF202F3FF4F1
:1043700071AF3D4A07EB470302EBC303D3E9027475
:10438000FEF74AF9801945F10001874274EB0103F9
:10439000BFF460AF364B187807B0BDE8F04000F0CE
:1043A0001FBC2B78304A03EB430302EBC30052F8E7
:1043B00033304068002184F89C1007B0BDE8F0401D
:1043C0001847284B284A1B78284903EB43034FF032
:1043D000FF344FF0FF35C1E9024502EBC30152F84B
:1043E00033304868052142E7A2694FF0804101233C
:1043F000C1F8083513602DE7FDF7D8FC01F093FAFA
:10440000C4E9020163E7A37C03EB4301DAB2635C16
:10441000202B16D003EB421204EB4202507F605473
:10442000FF21A171114E2B7002211177002286F815
:1044300028205BE7FDF7BAFC01F075FAC4E9020138
:1044400026E74FF41371702000F0BAFA40F2496188
:10445000702000F0B5FA40F24561702000F0B0FA2B
:10446000F80A0020980A002098070020A00A0020DF
:1044700044000020F0B5304B1B78202B87B051D082
:104480002E4CD4E90223B3F1FF3F08BFB2F1FF3F46
:104490004DD1D4E904310DF10B02C01841F10001F6
:1044A00004AB009203AAFDF717FF9DF80B20DDE98E
:1044B00004310F2A94BF002201229B1841F1000110
:1044C000C4E90231FEF764F830B9D4E902230520CB
:1044D000FEF726FA07B0F0BD01F025FAA3680546FD
:1044E0001F1A0E46FEF798F8874210D2A568FEF70D
:1044F00077F82842D4E90223E9D1013A43F1FF33A6
:104500000520C4E90223FEF70BFA07B0F0BDFEF761
:1045100083F8013D46F1FF312D1841F10001C4E956
:104520000251E4E740F66C01702000F049FA40F6D1
:104530006D01702000F044FA980A0020A00A0020C3
:10454000FEF7FCB8F8B52F4B93F800E0BEF1200F52
:1045500053D02D4DAB7C95F812C003EB43035FFAAB
:104560008CFCEB5C202B26D0284C4FEA4C1C05E041
:10457000634405EB43035B7F202B1CD003EB43021A
:1045800004EBC202917D8142F2D80EEB4E0E04EB99
:10459000CE040025A16823695B18E168D2E90240D6
:1045A00041F10001DE1C41F10002B44270EB020255
:1045B00004D20020F8BD4FF0FF30F8BD6FF00202CA
:1045C000D31A4FF0FF3262EB01011C19104B40EB84
:1045D00001061F68FEF720F8A04275EB060308D31A
:1045E0002046FDF709FE07F132038342E1D8C01BE4
:1045F000F8BDBDE8F840FEF791B840F6C201702062
:1046000000F0DEF9980A0020F80A00209807002040
:10461000A00A00202DE9F04F954B1D7887B0202D82
:10462000019000F01F81DFF84C92DFF84C8299F87E
:10463000123003EB43030646D8F8000019F8034094
:10464000D8F8183003938B46D8F8203002933044C2
:104650000DF1130205A9FDF713FE312E03D8012039
:1046600007B0BDE8F08FDFF814A205EB45050AEBB3
:10467000C502D2E9036793680093059DFEF74EF8E3
:10468000019B9842009BEAD3EB18D8F8185046F1EA
:104690000006DF19D8F81C3046F100067D1B66EBDA
:1046A0000306FDF7B9FF0023A842B341D7D3D8F8DA
:1046B000185099F81220D8F81C3088F826B0781BCA
:1046C000202CC8F82000D2B200F0BF805201DE4694
:1046D0002021934604EB440C0AEBCC0CDCE902727B
:1046E000401943F10003874272EB03034FEA44068B
:1046F00043D39CF81530012B03D098F82530012BBB
:1047000031D005200091FEF7B1F8009999F8120018
:104710004FF0FF324FF0FF332029C8E90223C0B227
:1047200040F0918000EB4000202419F80030504AFE
:1047300099F81210127802EB411209EB42025377FA
:10474000D8F80030019A1344C8F80030FF2389F8E4
:104750000630202C31D04A4B187800F041FA002066
:1047600007B0BDE8F08F0091FDF732FB7D1B0130F3
:1047700085420099C5DA98F826E026440AEBC60679
:10478000B37D73450DD90BEB040309EB43035B7F4A
:10479000202B16D02146D8F820001C46D8E9065315
:1047A00098E7DDE90231D8F818205B189B1A02203F
:1047B000C8F8203007B0BDE8F08F002007B0BDE892
:1047C000F08F0520FEF752F84FF0FF324FF0FF3325
:1047D00099F81200C8E90223C0B204EB401309EBB8
:1047E000430346005A7F00EB4003410119F803A040
:1047F00009F803204FF0050C5346CF1809EB470783
:104800001A4694421D4687F81CC07B7FF5D13718A5
:104810004F440A4497F802E0BEF1200F5FFA8EFC85
:1048200018BF8C44304418BF09EB4C0C09EB420212
:1048300048444FF0200114BF8CF81DA087F801A058
:104840008570517773E70C46C7E70520FEF70EF831
:1048500099F812004FF0FF324FF0FF33C8E90223FE
:10486000C0B25FE740F6F201702000F0A9F800BF87
:10487000980A0020F80A0020A00A002098070020CB
:10488000D00A0020BFF34F8F0549064BCA6802F4D7
:10489000E0621343CB60BFF34F8F00BFFDE700BF63
:1048A00000ED00E00400FA05094B01225A604FF0C8
:1048B000FF32C3F80823074B4FF48042C3F880202F
:1048C000BFF34F8FBFF36F8FC3F88021704700BFD6
:1048D00000E0004000E100E0094B01225A604FF087
:1048E000FF32C3F80823074B4FF48052C3F88020EF
:1048F000BFF34F8FBFF36F8FC3F88021704700BFA6
:1049000000C0004000E100E0084B0022C3F8FC2F8B
:104910000122C3F8FC2F064B0222C3F88020BFF30C
:104920004F8FBFF36F8FC3F8802170470010004096
:1049300000E100E0F8B51B4E337805460C461746FB
:1049400063BB00F091F9FCF7CDFE17487760002DAE
:1049500018BF28463472FFF7D7FFFFF7BDFFFFF7F8
:10496000A3FFFDF74DFA0546B0B9FEF79BFFFDF733
:1049700039FA00F019FF002C0CDB04F01F02640967
:10498000A40004F1604404F5614401239340C4F899
:1049900080312360012333702846F8BD4FF0FF3586
:1049A000FAE700BF980B002072D9040008B572B670
:1049B000024B5B6803B19847FFF764FF980B002038
:1049C0001FB572B6134B5D688DB9FFF75BFFB2FB85
:1049D000F6F2DCB20133002AF9D104F110036B4482
:1049E00003F80C2C0A2234B901A8A847EDE70246C7
:1049F00000230A26EDE7631E04AEDCB256FA83F309
:104A0000B0FBF2F602FB1600303003F80C0C304617
:104A1000E9E700BF980B0020074B93F90830002B03
:104A200009DB5A09012103F01F0301FA03F34032A5
:104A3000024941F822307047980B002000E100E065
:104A4000014B1878704700BF980B00202DE9F84FF4
:104A5000DFF8C4A0314C324DDFF8C890074601267C
:104A60009AF800805FFA88F8FF238AF80030B8F1DE
:104A7000000F01D08AF80130EFF3108272B60023E4
:104A80006660C4F80031C4F80431C4F804752660C7
:104A90003AB962B605E0D4F8043133B92B69DB06C4
:104AA00020D4D4F80031002BF5D0D4F80431002BF9
:104AB000E2D1B8F1000F13D19AF80130DBB28AF8D5
:104AC000018003214FF48042C4F80813C4F8048124
:104AD000C4F80081C9F880218AF80080002BBFD17A
:104AE000BDE8F88F4FF48043C9F88031EFF3108BA5
:104AF00072B60323C4F80433D4F8003113B9D4F8E0
:104B000004311BB1BBF1000FCBD1C2E700F038FF7D
:104B1000BBF1000FC5D1BCE7A40B002000E00040B2
:104B200000ED00E000E100E0FFF790BF1B4B4FF409
:104B3000805270B5C3F88020BFF34F8FBFF36F8FE3
:104B4000174D184C0021C5F80011C3F880212669C3
:104B5000236943F0100323610123C5F8043306F0F1
:104B600010062B60D5F80031A3B11EB9236923F0DC
:104B7000100323610A4B0122D3F808055A60C3F8D9
:104B800008230022C3F80021044B4FF48052C3F8DD
:104B9000802170BD00F0F4FEE4E700BF00E100E01A
:104BA00000C0004000ED00E038B50C490246052089
:104BB0000138C0B2FF2803D140216920FFF700FF70
:104BC00001EBC0031D7905F0FF04002DF0D141F881
:104BD000302001225C719C711A7138BDA80B002035
:104BE000042808B503D950216920FFF7E9FE094BD5
:104BF00003EBC0000379012B01D05121F4E7437985
:104C000082790133DBB29A4218BF4371BDE8084094
:104C1000FFF702BFA80B002070B5124C0625002636
:104C2000013D15F0FF0500D170BD94F8281004EB8C
:104C3000C1031A79012A09D158799A79904205D08D
:104C40005A79D2B29A7154F83130984794F8283092
:104C50000133DBB2042B94BF84F8283084F8286039
:104C6000DEE700BFA80B00204FF08052034BD2F8C4
:104C700030111960D2F834215A607047D40B0020EB
:104C8000034B1868A0F10F0358425841704700BF0A
:104C9000D40B0020034B1868A0F10A035842584176
:104CA000704700BFD40B0020034B1868A0F10E031F
:104CB00058425841704700BFD40B0020034B18687E
:104CC000A0F1100358425841704700BFD40B002098
:104CD000044B1868062803D0431C584258417047BB
:104CE00001207047D40B0020034B1868A0F10D037E
:104CF00058425841704700BFD40B0020034B18683E
:104D0000A0F1080358425841704700BFD40B00205F
:104D100008B5FFF7BFFF20B1024B5868B0FA80F02A
:104D2000400908BDD40B002008B5FFF7A9FF70B9F2
:104D3000FFF7B0FF58B9FFF7B7FF40B9FFF7C8FF5B
:104D4000044A054B002808BF1346184608BD024B0D
:104D5000FBE700BF00E701400C05004008B5FFF786
:104D6000B7FF08B3EFF3108072B6104A13691169E8
:104D700041F010011161A2F5406203F01003D2F876
:104D80000011D2F804210A4300D040BF20BF00BF69
:104D900000BF00BF00BF23B9044A136923F010030A
:104DA000136100B962B608BD20BFFCE700ED00E06A
:104DB0002DE9F04184075FFA81FE5FD0002A59D0C7
:104DC000034601E0002A55D003F801EB990702F1F0
:104DD000FF32F7D14EEA0E24032A44EA04443ED9B6
:104DE000151FAE08172D06F10106C3F3800147D940
:104DF0009846002940D048F8044B771A03EB810C01
:104E000079080CEBC101CCE900440CF1080C6145B8
:104E1000F9D127F0010C08EB8C016745CCEB8C78BD
:104E200005EB880517D02F1F032F0C6013D9A5F1B0
:104E30000807032F4C600ED9A5F10C07032F8C60D7
:104E400009D9A5F11007032FCC6004D9143D032D17
:104E50000C6188BF4C6102F0030203EB86034AB188
:104E6000013A83F800E005D0012A83F801E018BF79
:104E700083F802E0BDE8F0811546BEE70346A9E7E6
:104E800019461546CFE700BF014B1B681B68184742
:104E900048000020014B1B685B6818474800002051
:104EA000014B1B689B68184748000020014B1B689A
:104EB0001B6918474800002038B50420204CFFF734
:104EC00041FB2568854228BF054604212846FFF797
:104ED000A1FB30B10138C0B2012820D940F25311F2
:104EE00008E02368E068AB420DD1FFF7C3FA20B9B0
:104EF00040F233116B20FFF763FDE2682368226103
:104F00001344E36038BD05446089E5600123281A35
:104F10002375FFF7AFFA68B940F23D11EAE70123C4
:104F2000E06823756389C01AFFF7A4FA10B940F24C
:104F30004B11DFE76289E3689B1A2361E2E700BF58
:104F4000E00B002008B50C4B1A7802F0FF0312B1F9
:104F50005A1E1A4203D0EF216B20FFF731FD19B121
:104F6000034207D1F421F7E723EA00039B0601D1AE
:104F7000F821F1E708BD00BF4C00002008B50D4B3B
:104F800001221A764FF482721A841A68DA615A681A
:104F90009A62094A93F830000221117003F1180156
:104FA000FEF7EEFE20B94FF48A716B20FFF708FD83
:104FB00008BD00BFE00B00204C00002070B5EFF3EF
:104FC000108572B6264C94F831600023012E84F8C7
:104FD000313006D0022E1DD0002E3BD185F3108833
:104FE00070BD85F3108894F8323003F0FF0123B1CF
:104FF0004FF4B0716B20FFF7E3FC1420FFF7A2FF22
:10500000184B84F832601B78012BE9D1BDE8704061
:10501000FFF7B4BF94F8322012B940F27111E9E7FA
:10502000104984F832300B78023BDBB21E2B0ED8CD
:10503000012202FA03F30C4A1342CFD144F20402D4
:10504000134204D020230B70FEF764FCC6E740F245
:105050008D11CFE785F3108840F2B311CAE700BF86
:10506000E00B00204C000020410000402DE9F843F7
:10507000294E337D05460F461BB1012B0AD0002077
:1050800006E073893068C01A85428CBF0020012079
:10509000BDE8F883FEF76EFE8046894600F031FCDD
:1050A000326910F11E0441F1000112EB080249F1CE
:1050B0000003944271EB030007D2121B63EB010360
:1050C00023B1A7216B20FFF77BFC0022954221D959
:1050D00073895B191B19F46814EB08041C1B322C30
:1050E00038BF3224C7F10401C9B22046FFF792FA53
:1050F0000028C4D1F06804447089F460201AFFF7D6
:10510000B9F910B940F26331DCE77289F3689B1A90
:105110003361BDE70120BBE7E00B002070B5144C04
:1051200094F8335025B140F296216B20FFF748FCEC
:10513000104B84F8325001261E700F4B0F484FF46D
:10514000C852C4E900230E4BA360FFF72DFD29468A
:1051500084F834000B48FEF7BFFD202884F83000A7
:1051600002D140F2A521E0E784F8336070BD00BFB2
:10517000E00B00204C000020FF3F420FBD4F00001D
:105180000500B7000153000008B5104B93F8332019
:1051900022B940F205316B20FFF712FCEFF31081CA
:1051A00072B693F8312022B1012A0DD040F21531A8
:1051B000F1E7022283F8312001B962B693F8340096
:1051C000BDE80840FFF70CBD0022F3E7E00B00202C
:1051D0000B4B93F8333010B523B94FF449716B2062
:1051E000FFF7EEFBEFF3108472B6064B1A78102A25
:1051F00003D108221A70FEF78DFB04B962B610BD08
:10520000E00B00204C000020044B1B78042B02D143
:105210000021FFF72BBF0020704700BF4C0000208B
:1052200070B5134B1B78042B1FD1124E337D1BB965
:1052300073893068C01A70BD00F063FB10F11E0462
:1052400041F10005FEF796FD33691B1841F100019D
:105250009C4275EB010208D2181B61EB0501002985
:10526000E9D0A7216B20FFF7ABFB0020E3E700BFED
:105270004C000020E00B002038B5144C94F833307B
:1052800023B940F2DA216B20FFF79AFBEFF3108588
:1052900072B694F8313023B1022B0DD040F2ED21DB
:1052A000F1E7012384F8313005B962B694F834008F
:1052B000BDE83840FFF794BC054B1B780022042B57
:1052C00084F83120F0D12FF065FAEDE7E00B0020F3
:1052D0004C00002008B5094B19781029CAB207D034
:1052E000202A05D0042A04D110221A702FF062FA65
:1052F00008BD4FF4E9716B20FFF762FB4C00002002
:1053000070B50C46FFF71CF9062C48D8DFE804F00E
:105310000451512823645D0001210220FFF712FE91
:10532000304B314A93F8321079B1042111701A6868
:10533000DA6000221A7593F83130022B01D02FF079
:1053400029FABDE87040FFF7B7BD20231370BDE810
:105350007040FEF7DFBA40F21E216B20FFF730FBF2
:10536000204E96F83230D3B11F4B1B78042B17D147
:1053700000F0C7FA05460C46FEF7FCFC337D012B16
:105380000BD13269121841F10003954274EB03030B
:1053900003D3BDE87040FFF79DBF0EF0C1FA70BDAA
:1053A000124B0222C3F88020BFF34F8FBFF36F8FE1
:1053B000F5E701210220FFF7C5FD0A4B93F83230D3
:1053C00033B1BDE87040FFF7D9BD01212820F2E7D5
:1053D000054B01221A70E2E7024B1B7D012BB0D175
:1053E000D7E700BFE00B00204C00002000E100E008
:1053F0007BB972B90029BEBF00204FF0004106E022
:1054000008BF00281CBF6FF000414FF0FF3000F0D4
:1054100057B8ADF1080C6DE904CE002909DB002B6B
:105420001ADB00F0C1FADDF804E0DDE9022304B084
:105430007047404261EB4101002B1BDB00F0B4FAE6
:10544000DDF804E0DDE9022304B0404261EB4101F4
:10545000524263EB43037047524263EB430300F055
:10546000A3FADDF804E0DDE9022304B0404261EB79
:1054700041017047524263EB430300F095FADDF8B7
:1054800004E0DDE9022304B0524263EB43037047BA
:1054900053B94AB9002908BF00281CBF4FF0FF319B
:1054A0004FF0FF3000F00CB8ADF1080C6DE904CE00
:1054B00000F07AFADDF804E0DDE9022304B0704779
:1054C000704700BF10F8012B11F8013B012A28BFDB
:1054D0009A42F7D0D01A7047034613F8012B002ADE
:1054E000FBD1181A0138704708B5FFF7BDFBBDE8BE
:1054F0000840FCF7F7B8801A00F3070038B540B24F
:105500000D4659B21446FCF7DDF8002328702044FC
:105510006B7040B238BD7FB5A0F10B040E46E1B20E
:105520000F29154603D950216420FFF749FA0DF1E0
:105530000B0332460420FCF781F808B15921F3E748
:1055400004EB840404F6651300909BB29DF90B00F4
:10555000042203A9FCF760F89DF80C302B709DF82D
:105560000D306B7004B070BD00230360704770474E
:10557000002070474FF0FF3070474FF0FF3070470A
:1055800070474FF0FF307047002070470020704791
:105590000023037070479DF800300022FFF7ABBF77
:1055A000002070474FF0FF3070474FF0FF307047DA
:1055B0004FF0FF3070477047C0B27047C0B208B5B7
:1055C00020B94FF0804301221A6008BD5121B52057
:1055D000FFF7F6F90020FCF7DFB84FF08043D3F86F
:1055E000080400F0010070474FF08043D3F8140422
:1055F00000F0010070474FF08043D3F81C0400F026
:10560000030070474FF080410246D1F81804D1F8EA
:10561000181410F4803004D001F00300831A5842AB
:105620005841704708B5FFF773FB28B14FF080432E
:105630000222C3F8342C08BDFFF74AFB0028F5D13D
:10564000FFF75CFB0028F1D1F5E70020FCF7F6B886
:105650000020FCF721B90020FCF79EB838B50546BC
:1056600091F827000C46FEF76BFB18B9EA216A2077
:10567000FFF7A6F90023A38484F826300921236AC2
:105680002846984718B103780BB1EE21EFE738BDF3
:10569000426808B5034611441A785960012AA1F1FD
:1056A000500006D1FEF7E6FE40B9CE216A20FFF792
:1056B00087F9FEF7DFFE08B9D321F7E708BDF8B593
:1056C00004460E4619B9012384F829303BE00D78D1
:1056D000032DF8D8DFE805F0390212154868C7280D
:1056E00002D800252846F8BD0421FEF793FF0028C4
:1056F000F7D171682046FFF7CBFFF3E7FCF7F4FB27
:10570000F0E790F82470F7B94D682846FCF7C0FB25
:105710000028D8D02B78D3B9012222702B79003BF6
:1057200018BF012363726B79002B0CBF0223042383
:105730002372AB686F336360EB682361032384F8E3
:10574000263084F82520FCF7CFFB0225CAE794F821
:105750002630052B04D04FF4C9716A20FFF730F9C9
:1057600027702B7994F82700003B18BF0123637240
:105770006B79002B0CBF022304232372EB68A9680A
:105780006F336360D4E906325B1842EBE172C4E91F
:105790000432042384F826302146FEF7F1FA00286B
:1057A000D1D14FF4CA71D8E770B5FCF7FBFC0024E7
:1057B00005462646E0B2854200D870BDFCF7F8FCED
:1057C0000134868480F82660F4E7F8B504460D4677
:1057D000FCF7E8FC00270646F8B2864204D8082DFC
:1057E0000CD96FF0150008E0FCF7E2FC90F82630C9
:1057F0000137002BF0D04FF0FF30F8BD2CB1294617
:105800002046BDE8F840FCF7E1BC21462046F8E719
:1058100038B50546FCF7CCFC014688B190F8244029
:105820008CB990F8263073B1013B012B04D828467F
:10583000FFF714FF204638BD012380F82430F9E734
:105840006FF00100F7E76FF02200F4E770B50D4646
:10585000FCF7AEFC0446002848D090F82660731E82
:10586000012B49D8002D44D02846FCF711FB002815
:105870003FD02B78FBB9012323702B79003B18BF55
:10588000012363726B79002B0CBF02230423237264
:10589000AB686F336360EB682361032394F82700E0
:1058A00084F826302146FEF76BFA40BB40F2BF2158
:1058B0006A20FFF785F8022E1ED1002323702B7972
:1058C000003B18BF012363726B79002B18BF0426BD
:1058D0002672EB68A9686F336360D4E906325B18FF
:1058E00042EBE172C4E904320423D7E76FF0010010
:1058F00070BD6FF01500FBE76FF02200F8E70020A5
:10590000F6E700F000B837B56846FCF791FEFCF703
:105910004BFE04460098019DFCF76EFC0021E5FB60
:10592000040103B030BD07B56846FCF781FEFCF703
:105930004BFE019A034600980021E2FB030103B0ED
:105940005DF804FB0346002018707047EFF31082E7
:1059500072B603780121DBB2017002B962B6012B85
:105960000CBF6FF0220000207047EFF3108372B677
:105970000022027003B962B600207047FFF74CB9ED
:10598000FFF7ECB9FFF7EAB900280CBF6FF015007C
:1059900000207047002070470723037000207047E5
:1059A00000207047002070472DE9F04786468C465E
:1059B0000846089E154674461946002B40F0C280E2
:1059C0008542B2FA82F245D94AB1C2F1200300FA07
:1059D00002FC2EFA03F3954043EA0C0C94404FEA84
:1059E000154EA8B2BCFBFEF8230C0EFB18CC08FB2E
:1059F00000F943EA0C43994528D9EB1808F1FF3721
:105A000004D2994502D9A8F102072B44A3EB09035C
:105A1000A4B2B3FBFEFC0EFB1C330CFB00F044EA0B
:105A20000344A04214D92C190CF1FF3304D2A04234
:105A300002D9ACF102032C44241A43EA07401EB1F8
:105A4000D440002334607360BDE8F0874746DDE74B
:105A50006346F1E792BB431B01214FEA154EAFB2FB
:105A6000B3FBFEFC200C0EFB1C330CFB07F840EADA
:105A70000343984562D9EB180CF1FF3004D29845E6
:105A800002D9ACF102002B44A3EB0803A4B2B3FB90
:105A9000FEFC0EFB1C330CFB07F744EA0344A74251
:105AA0004ED92C190CF1FF3304D2A74202D9ACF124
:105AB00002032C44E41B43EA0040C0E7C2F1200388
:105AC00020FA03F1954090402EFA03F303434FEA86
:105AD000154EAFB2B1FBFEFC0EFB1C10190C0CFBFB
